{
  "contractName": "SimpleStorage",
  "abi": [
    {
      "constant": false,
      "inputs": [
        {
          "name": "x",
          "type": "uint256"
        }
      ],
      "name": "set",
      "outputs": [],
      "payable": false,
      "stateMutability": "nonpayable",
      "type": "function"
    },
    {
      "constant": true,
      "inputs": [],
      "name": "get",
      "outputs": [
        {
          "name": "",
          "type": "uint256"
        }
      ],
      "payable": false,
      "stateMutability": "view",
      "type": "function"
    },
    {
      "constant": false,
      "inputs": [
        {
          "name": "x",
          "type": "string"
        }
      ],
      "name": "setString",
      "outputs": [],
      "payable": false,
      "stateMutability": "nonpayable",
      "type": "function"
    },
    {
      "constant": true,
      "inputs": [],
      "name": "getString",
      "outputs": [
        {
          "name": "",
          "type": "string"
        }
      ],
      "payable": false,
      "stateMutability": "view",
      "type": "function"
    },
    {
      "anonymous": false,
      "inputs": [
        {
          "indexed": false,
          "name": "updatedValue",
          "type": "uint256"
        },
        {
          "indexed": false,
          "name": "sender",
          "type": "address"
        }
      ],
      "name": "ValueUpdated",
      "type": "event"
    },
    {
      "anonymous": false,
      "inputs": [
        {
          "indexed": false,
          "name": "updatedValue",
          "type": "string"
        },
        {
          "indexed": false,
          "name": "sender",
          "type": "address"
        }
      ],
      "name": "StringValueUpdated",
      "type": "event"
    }
  ],
  "bytecode": "0x6060604052341561000f57600080fd5b6104938061001e6000396000f300606060405260043610610062576000357c0100000000000000000000000000000000000000000000000000000000900463ffffffff16806360fe47b1146100675780636d4ce63c1461008a5780637fcaf666146100b357806389ea642f14610110575b600080fd5b341561007257600080fd5b610088600480803590602001909190505061019e565b005b341561009557600080fd5b61009d610213565b6040518082815260200191505060405180910390f35b34156100be57600080fd5b61010e600480803590602001908201803590602001908080601f0160208091040260200160405190810160405280939291908181526020018383808284378201915050505050509190505061021c565b005b341561011b57600080fd5b610123610306565b6040518080602001828103825283818151815260200191508051906020019080838360005b83811015610163578082015181840152602081019050610148565b50505050905090810190601f1680156101905780820380516001836020036101000a031916815260200191505b509250505060405180910390f35b806000819055507f96b66f199ddfd2b6ba158a38ed75afe9c9da657c856767e38803d16c1cf9451e8133604051808381526020018273ffffffffffffffffffffffffffffffffffffffff1673ffffffffffffffffffffffffffffffffffffffff1681526020019250505060405180910390a150565b60008054905090565b80600190805190602001906102329291906103ae565b507f1fff487611bf13696a8f1296e35786a82927da2ba7b4536a060464610409872d813360405180806020018373ffffffffffffffffffffffffffffffffffffffff1673ffffffffffffffffffffffffffffffffffffffff168152602001828103825284818151815260200191508051906020019080838360005b838110156102c85780820151818401526020810190506102ad565b50505050905090810190601f1680156102f55780820380516001836020036101000a031916815260200191505b50935050505060405180910390a150565b61030e61042e565b60018054600181600116156101000203166002900480601f0160208091040260200160405190810160405280929190818152602001828054600181600116156101000203166002900480156103a45780601f10610379576101008083540402835291602001916103a4565b820191906000526020600020905b81548152906001019060200180831161038757829003601f168201915b5050505050905090565b828054600181600116156101000203166002900490600052602060002090601f016020900481019282601f106103ef57805160ff191683800117855561041d565b8280016001018555821561041d579182015b8281111561041c578251825591602001919060010190610401565b5b50905061042a9190610442565b5090565b602060405190810160405280600081525090565b61046491905b80821115610460576000816000905550600101610448565b5090565b905600a165627a7a7230582034647a777aaaabfb7e7748246ba6c8373814b5690b01af43fe0a53248acdec000029",
  "source": "pragma solidity ^0.4.18;\n\ncontract SimpleStorage {\n  uint storedData;\n  string storedString;\n  //mapping(address => uint) public historyForInt;\n  //mapping(address => string) public historyForString;\n\n \n\n  // Events\n\n  event ValueUpdated(uint updatedValue, address sender); \n  event StringValueUpdated(string updatedValue, address sender); \n\n  // Setters\n\n  function set(uint x) public {\n    storedData = x;\n    ValueUpdated(x, msg.sender);\n  }\n\n  function setString(string x) public {\n    storedString = x;\n    StringValueUpdated(x, msg.sender);\n  }\n\n  // Getters\n  function getString() public view returns (string) {\n    return storedString;\n  }\n\n  function get() public view returns (uint) {\n    return storedData;\n  }\n}\n",
  "sourcePath": "/Users/stan/Dev/PIVOTS/Prophets/box/contracts/SimpleStorage.sol",
  "compiler": {
    "name": "solc",
    "version": "0.4.18+commit.9cf6e910.Emscripten.clang"
  },
  "schemaVersion": "1.0.1",
  "updatedAt": "2017-11-29T18:45:44.956Z"
}