{
  "contractName": "ProphetController",
  "abi": [
    {
      "constant": true,
      "inputs": [
        {
          "name": "",
          "type": "uint256"
        }
      ],
      "name": "prophecy",
      "outputs": [
        {
          "name": "",
          "type": "string"
        }
      ],
      "payable": false,
      "stateMutability": "view",
      "type": "function"
    },
    {
      "constant": false,
      "inputs": [
        {
          "name": "prophecyBody",
          "type": "string"
        }
      ],
      "name": "orderProphecy",
      "outputs": [
        {
          "name": "",
          "type": "uint256"
        }
      ],
      "payable": false,
      "stateMutability": "nonpayable",
      "type": "function"
    },
    {
      "anonymous": false,
      "inputs": [
        {
          "indexed": false,
          "name": "updatedValue",
          "type": "uint256"
        },
        {
          "indexed": false,
          "name": "sender",
          "type": "address"
        }
      ],
      "name": "addProphet",
      "type": "function",
      "constant": false,
      "outputs": [],
      "payable": false,
      "stateMutability": "nonpayable"
    },
    {
      "constant": false,
      "inputs": [
        {
          "name": "x",
          "type": "uint256"
        }
      ],
      "name": "set",
      "outputs": [],
      "payable": false,
      "stateMutability": "nonpayable",
      "type": "function"
    },
    {
      "constant": false,
      "inputs": [
        {
          "name": "x",
          "type": "address"
        }
      ],
      "name": "pingProphet",
      "outputs": [],
      "payable": false,
      "stateMutability": "nonpayable",
      "type": "function"
    },
    {
      "constant": true,
      "inputs": [],
      "name": "get",
      "outputs": [
        {
          "name": "",
          "type": "uint256"
        }
      ],
      "payable": false,
      "stateMutability": "view",
      "type": "function"
    },
    {
      "constant": false,
      "inputs": [
        {
          "name": "x",
          "type": "address"
        }
      ],
      "name": "pongProphet",
      "outputs": [],
      "payable": false,
      "stateMutability": "nonpayable",
      "type": "function"
    },
    {
      "constant": true,
      "inputs": [
        {
          "name": "",
          "type": "address"
        }
      ],
      "name": "prophets",
      "outputs": [
        {
          "name": "",
          "type": "uint256"
        }
      ],
      "payable": false,
      "stateMutability": "view",
      "type": "function"
    },
    {
      "constant": false,
      "inputs": [
        {
          "name": "x",
          "type": "address"
        },
        {
          "name": "result",
          "type": "string"
        }
      ],
      "name": "recievePropechy",
      "outputs": [],
      "payable": false,
      "stateMutability": "nonpayable",
      "type": "function"
    },
    {
      "constant": false,
      "inputs": [
        {
          "name": "x",
          "type": "address"
        }
      ],
      "name": "shutdownProphet",
      "outputs": [],
      "payable": false,
      "stateMutability": "nonpayable",
      "type": "function"
    },
    {
      "anonymous": false,
      "inputs": [
        {
          "indexed": false,
          "name": "sender",
          "type": "address"
        }
      ],
      "name": "IsProphetReady",
      "type": "event"
    },
    {
      "anonymous": false,
      "inputs": [
        {
          "indexed": false,
          "name": "sender",
          "type": "address"
        }
      ],
      "name": "ProphetReady",
      "type": "event"
    },
    {
      "anonymous": false,
      "inputs": [
        {
          "indexed": false,
          "name": "sender",
          "type": "address"
        }
      ],
      "name": "ProphetDestroyed",
      "type": "event"
    },
    {
      "anonymous": false,
      "inputs": [
        {
          "indexed": false,
          "name": "prophecyId",
          "type": "uint256"
        }
      ],
      "name": "ProphecyOrdered",
      "type": "event"
    },
    {
      "anonymous": false,
      "inputs": [
        {
          "indexed": false,
          "name": "result",
          "type": "string"
        }
      ],
      "name": "ProphecyCompleted",
      "type": "event"
    },
    {
      "anonymous": false,
      "inputs": [
        {
          "indexed": false,
          "name": "updatedValue",
          "type": "uint256"
        },
        {
          "indexed": false,
          "name": "sender",
          "type": "address"
        }
      ],
      "name": "ValueUpdated",
      "type": "event"
    }
  ],
  "bytecode": "0x6060604052341561000f57600080fd5b6109518061001e6000396000f3006060604052600436106100a4576000357c0100000000000000000000000000000000000000000000000000000000900463ffffffff1680630d7dc06e146100a95780631e770554146101455780635cf888de146101a257806360fe47b1146101b75780636aa2ee74146101da5780636d4ce63c14610213578063880bfdc11461023c57806396570f4c14610275578063d748379f146102c2578063d842f48b1461033e575b600080fd5b34156100b457600080fd5b6100ca6004808035906020019091905050610377565b6040518080602001828103825283818151815260200191508051906020019080838360005b8381101561010a5780820151818401526020810190506100ef565b50505050905090810190601f1680156101375780820380516001836020036101000a031916815260200191505b509250505060405180910390f35b341561015057600080fd5b6101a0600480803590602001908201803590602001908080601f01602080910402602001604051908101604052809392919081815260200183838082843782019150505050505091905050610427565b005b34156101ad57600080fd5b6101b561048d565b005b34156101c257600080fd5b6101d860048080359060200190919050506104e5565b005b34156101e557600080fd5b610211600480803573ffffffffffffffffffffffffffffffffffffffff1690602001909190505061055a565b005b341561021e57600080fd5b610226610609565b6040518082815260200191505060405180910390f35b341561024757600080fd5b610273600480803573ffffffffffffffffffffffffffffffffffffffff16906020019091905050610612565b005b341561028057600080fd5b6102ac600480803573ffffffffffffffffffffffffffffffffffffffff169060200190919050506106ad565b6040518082815260200191505060405180910390f35b34156102cd57600080fd5b61033c600480803573ffffffffffffffffffffffffffffffffffffffff1690602001909190803590602001908201803590602001908080601f016020809104026020016040519081016040528093929190818152602001838380828437820191505050505050919050506106c5565b005b341561034957600080fd5b610375600480803573ffffffffffffffffffffffffffffffffffffffff1690602001909190505061079a565b005b60026020528060005260406000206000915090508054600181600116156101000203166002900480601f01602080910402602001604051908101604052809291908181526020018280546001816001161561010002031660029004801561041f5780601f106103f45761010080835404028352916020019161041f565b820191906000526020600020905b81548152906001019060200180831161040257829003601f168201915b505050505081565b806002600060035481526020019081526020016000209080519060200190610450929190610880565b507fdc3a03e8064599b7fb4ffdfff99e44b6a1225cb9a7ed63bf5e470f2b381108fc6003546040518082815260200191505060405180910390a150565b60018060003373ffffffffffffffffffffffffffffffffffffffff1673ffffffffffffffffffffffffffffffffffffffff16815260200190815260200160002081905550600460008154809291906001019190505550565b806000819055507f96b66f199ddfd2b6ba158a38ed75afe9c9da657c856767e38803d16c1cf9451e8133604051808381526020018273ffffffffffffffffffffffffffffffffffffffff1673ffffffffffffffffffffffffffffffffffffffff1681526020019250505060405180910390a150565b6000600160008373ffffffffffffffffffffffffffffffffffffffff1673ffffffffffffffffffffffffffffffffffffffff168152602001908152602001600020541115610606577fcb7e6cc6609c868d3e219f58d920edf278bd21dadc208a8200e5ec9cac7ff62e81604051808273ffffffffffffffffffffffffffffffffffffffff1673ffffffffffffffffffffffffffffffffffffffff16815260200191505060405180910390a15b50565b60008054905090565b8073ffffffffffffffffffffffffffffffffffffffff163373ffffffffffffffffffffffffffffffffffffffff1614156106aa577f21846a931cabe9dfc81b71fa4f8456591d932502bf10bf3a2f54fb4f540b636181604051808273ffffffffffffffffffffffffffffffffffffffff1673ffffffffffffffffffffffffffffffffffffffff16815260200191505060405180910390a15b50565b60016020528060005260406000206000915090505481565b8173ffffffffffffffffffffffffffffffffffffffff163373ffffffffffffffffffffffffffffffffffffffff161415610796577f26df0833f4383918dd52b51c31ff12802976633cf7bd2ad0514872c4a0393e8c816040518080602001828103825283818151815260200191508051906020019080838360005b8381101561075b578082015181840152602081019050610740565b50505050905090810190601f1680156107885780820380516001836020036101000a031916815260200191505b509250505060405180910390a15b5050565b8073ffffffffffffffffffffffffffffffffffffffff163373ffffffffffffffffffffffffffffffffffffffff1614806108215750600560009054906101000a900473ffffffffffffffffffffffffffffffffffffffff1673ffffffffffffffffffffffffffffffffffffffff163373ffffffffffffffffffffffffffffffffffffffff16145b1561087d57600160008273ffffffffffffffffffffffffffffffffffffffff1673ffffffffffffffffffffffffffffffffffffffff16815260200190815260200160002060009055600460008154809291906001900391905055505b50565b828054600181600116156101000203166002900490600052602060002090601f016020900481019282601f106108c157805160ff19168380011785556108ef565b828001600101855582156108ef579182015b828111156108ee5782518255916020019190600101906108d3565b5b5090506108fc9190610900565b5090565b61092291905b8082111561091e576000816000905550600101610906565b5090565b905600a165627a7a7230582067fdb2b94c25bf3a6ad303c511a97a37f743b3e6b7581b96220e49ae6eb719100029",
  "source": "pragma solidity ^0.4.18;\n\ncontract ProphetController {\n  uint storedProphets;\n  mapping(address => uint) public prophets;\n  mapping(uint => string) public prophecy;\n\n  uint prophecyCount;\n  uint prophetsCount;\n  address admin;\n\n  function set(uint x) public {\n    storedProphets = x;\n    ValueUpdated(x, msg.sender);\n  }\n\n  function get() public view returns (uint) {\n    return storedProphets;\n  }\n\n\n\n/////////////////////////////////////////////\n\n  function addProphet() public {\n  \tprophets[msg.sender] = 1;\n  \tprophetsCount++;\n  }  \n  function shutdownProphet(address x) public {\n  \t if (msg.sender == x || msg.sender == admin) {\n        delete prophets[x];\n     \tprophetsCount--;\n     }\n  }\n\n  function pingProphet(address x) public {\n  \tif(prophets[x] > 0) {\n        IsProphetReady(x);\n  \t}\n  }  \n  function pongProphet(address x) public {\n  \tif (msg.sender == x) {\n  \t\tProphetReady(x);\n  \t}\n  }\n\n  function orderProphecy(string prophecyBody) public {\n  \tprophecy[prophecyCount] = prophecyBody;\n  \tProphecyOrdered(prophecyCount);\n  }  \n  function recievePropechy(address x, string result) public {\n  \tif (msg.sender == x) {\n\t  ProphecyCompleted(result);\n  \t}\n  }  \n\n  \n  /*****\n   **  Events\n   *****/\n  event IsProphetReady(address sender); \n  event ProphetReady(address sender); \n  event ProphetDestroyed(address sender);\n  event ProphecyOrdered(uint prophecyId); \n  event ProphecyCompleted(string result); \n  event ValueUpdated(uint updatedValue, address sender); \n\n\n}\n",
  "sourcePath": "/Users/stan/Dev/PIVOTS/Prophets/box2/contracts/ProphetController.sol",
  "compiler": {
    "name": "solc",
    "version": "0.4.18+commit.9cf6e910.Emscripten.clang"
  },
  "schemaVersion": "1.0.1",
  "updatedAt": "2017-12-03T12:19:53.906Z"
}